:1009D0003D3D52616E67652046696E6465723D3DBE
:1009E00000303132333435363738392E2D4D4469A5
:1009F0007374616E63653A3030302E30636D002160
:100A00002121204F7574206F662072616E6765002A
:1008F600C181C18201230001480A022800000226A4
:100906000000142A000000000000000000000000A3
:100916000000000000000000014900044300000040
:100926000002240000043E00000000C10001420055
:0F093600012200014B00014A0A01470A0121007A
:0C0AEC00E4FDFC7F38120B977F057E00B4
:100AF800D3EF9400EE940040147D707C00ED1D70DF
:0D0B0800011CED4C70F7EF1F70E61E80E33E
:010B150022BD
:100A4F007F017E00120A6EC2917F017E00120A6E34
:0F0A5F00C2A57F017E00120A6EC2A57F017E0034
:100A6E007D0A7C0000ED1D70011C144C70F6EF1F0A
:070A7E0070011E144E70E927
:010A8500224E
:08000300D2A6E4F580C2A6229A
:100B76007580FFC290120A6AD291120A6A120A5F3F
:0D0B8600D2A5120A6AE58020E7F3AF8022B5
:100BB000AB07120B768B80D290120A4FD2A57F0121
:050BC0007E00020A6E38
:040B93007D017C0064
:100B9700AB07ED4C6003120B768B80C290120A4FA5
:090BA700D2A57F017E00020A6E56
:100ABB00E4F580120AED120AEC120AEC7F38120BE5
:100ACB00937F08120B937D017C007F01120B977DA6
:100ADB00017C007F06120B977D017C007F0C020BC3
:010AEB009773
:070B16009009E193FB7D0152
:100B1D00AE07AA0353050153060FED6003430640CC
:0D0B2D00430680AF06120B93AF02020BB01F
:080A10007A097BEE7D01E4FF91
:080A18008D108A118B12A90751
:100A2000E4F51353100153010FE5122513F582E489
:100A30003511F583E493FBD394194012E9D3940F55
:0E0A400050E7AF01AD10120B1D05130980DB4E
:010A4E002285
:0C000E00D2A17F027E00120A6EC2A12265
:0B0BF900D293D296C292C297020AF873
:040BEA007F017E0009
:0B0BEE00C292C293C296C297020AF89E
:0B0C0400D292C293C296D297020AF867
:0B0C0F00D293C296C292D297020AF85C
:0B0C1A00C293D296D292C297020AF851
:100A86007C00AF8DEFFEAD8BE42DF525EC3EF52415
:100A9600E4F58DF58BAC24AD251202217B7B7A140F
:100AA600792E783E120116E4FBFA7920784112007D
:040AB6002512025AA9
:010ABA002219
:0A04DA008B128A1389148C158D16FD
:1004E400E4F517F518E51624FFFFE51534FFFEC300
:1004F400E5189FEE6480F8E51764809840030206CF
:100504001DE5182401F51AE43517F519C3E51A9504
:1005140016E5156480F8E519648098400302060F17
:10052400E51AAE197802C333CE33CED8F9AB12AA8A
:1005340013A914F5828E831203C8C004C005C00633
:10054400C007E518AE177802C333CE33CED8F9AB63
:1005540012AA13A914F5828E8312041CD007D006A4
:10056400D005D004D31203B75003020601E518AE38
:10057400177802C333CE33CED8F9AB12AA13A91419
:10058400F5828E831203C88E1B8F1CE51AAE197870
:1005940002C333CE33CED8F9F5828E831203C8C09A
:1005A40004C005C006C007E518AE177802C333CEF1
:1005B40033CED8F9AB12AA13A914F5828E83D007CF
:1005C400D006D005D0041203F8AE1BAF1CEE339551
:1005D400E0FDFCC004C005C006C007E51AAE1978EA
:1005E40002C333CE33CED8F9AB12AA13A914F582C1
:1005F4008E83D007D006D005D0041203F8051AE57F
:100604001A600302051005190205100518E51860A3
:09061400030204E905170204E9E0
:01061D0022BA
:0707C1007FF47E01120AF82B
:1007C800E4F50CF50DF511F510F50FF50ED2A012A4
:1007D800000E30A0FDD28E20A0FDC28E120A86C364
:1007E800E50D9405E50C648094805030D2A0120089
:1007F8000E30A0FDD28E20A0FDC28E120A868F4137
:100808008E408D3F8C3EE50D25E025E0242AF81228
:10081800044C050DE50D70C7050C80C3E4F50CF517
:100828000DFB7A00792A7D05FC1204DAE5312535BD
:10083800FFE5303534FEE52F3533FDE52E3532FC46
:10084800EF2539FFEE3538FEED3537FDEC3536FC52
:10085800E47B03FAF9F81203178F118E108D0F8CB1
:010868000E81
:01086900226C
:0806F2008F0B8E0A8D098C08A4
:1006FA008F0F8E0E8D0D8C0CE47F887E13FDFCAB64
:10070A000FAA0EA90DA80CC31203B7500330000D8F
:10071A00C2007A097BFF7D01E4FF020A18E47B0A22
:10072A00FAF9F8AF0FAE0EAD0DAC0C120317AF030A
:10073A008F43E47B0AFAF9F8AF0FAE0EAD0DAC0C9D
:10074A00120317E47B0AFAF9F8120317AF038F446E
:10075A00E47B64FAF9F8AF0FAE0EAD0DAC0C1203E0
:10076A0017E47B0AFAF9F8120317AF038F45E47B03
:10077A00E87A03F9F8AF0FAE0EAD0DAC0C12031701
:10078A008F46120A10E5467F09120B16E54593FBC0
:10079A007D017F0A120B1DE54493FB7D017F0B123D
:1007AA000B1D9009EBE493FB7D017F0C120B1DE5F9
:0707BA00437F0D120B162214
:10061E00E4F50BF50AF509F5081207C81206F2E41F
:10062E007F2C7E01FDFCAB41AA40A93FA83ED31210
:10063E0003B74009E549640160030206D3120BEAD1
:10064E007548141207C11206F2850A28850B297FF8
:10065E00647E00120AF87548031207C11206F2856D
:10066E000A26850B277F647E00120AF875480A7FDA
:10067E00F47E01120AF87F147E00120C04120BEAAB
:10068E00C3E52994DCE528648094805014C3E527E3
:10069E0094DCE5266480948050077F2C7E01020C4A
:1006AE001AD3E5299527E5266480F8E52864809815
:1006BE007F967E004005120C1A8003120C0F7F32BB
:1006CE007E00020BEEE47F2C7E01FDFCAB41AA40C6
:1006DE00A93FA83ED31203B74009E5497005FFFEB6
:0306EE00120BF9F3
:0106F10022E6
:03001B00020C25AF
:050C2500D200C2A03264
:100BC50020B7FD7F0A7E00120AF820B7F3C2A330D2
:040BD500B7FDD2A3F3
:010BD90022F9
:100B3A00300218E522D3954A5004D2948002C29416
:0E0B4A00E522C394144006E4F52222C2942250
:100B5800300118E54BD395475004D2958002C295D1
:0E0B6800E54BC394144006E4F54B22C29522DF
:100BDA00438901758CFF758AA3D2AFD28CD2A92220
:03000B0002098E59
:10098E00C0E0C0D0C28C758CFF758AA3E523D395C9
:10099E00485004D2A78002C2A705230521E523C330
:1009AE0094C84003752300E521C3940A400D052227
:1009BE00054B120B3A120B58752100D28CD0D0D0A9
:0209CE00E03215
:100946001200037F907E01120AF8120ABB120AF403
:100956007A097BD0E4FDFF120A18120A10438910A7
:10096600D2AFE4F58DF58BD2AB75480A120BDA12CD
:100976000BC530B40320B508120BEA754901800394
:08098600E4F54912061E80EAA7
:10001E000202C6E86480F8E933E83360110460F048
:10002E00ED33EC337009E8FCE9FDEAFEEBFF220448
:10003E0060DED3EB9FEA9EE99DE8C2E78CF0C2F743
:10004E0095F0400CE8CCF8E9CDF9EACEFAEBCFFB0F
:10005E0012029185D0F05804700320D5B3E80470D5
:10006E00075002B2D50202D092D5EC0460F7E4CC70
:10007E00C0E0C398F8603B94186008400DD0E0FBD8
:10008E000202A8E4FBFAC9FC8028E830E406E4C9C1
:10009E00FBE4CAFCE830E305E4C9CACBFCE854072C
:1000AE006010F8C3E913F9EA13FAEB13FBEC13FC37
:1000BE00D8F130F52FC3E49CFCEF9BFFEE9AFEEDDA
:1000CE0099FDD0E0FBEF4E4D4C701222DB03020285
:1000DE00CDEC2CFCEF33FFEE33FEED33FDED30E7D0
:1000EE00EB0202A8EF2BFFEE3AFEED39FDD0E0FB5E
:1000FE0050130BBB00030202D0ED13FDEE13FEEF07
:08010E0013FFEC13FC0202A830
:10011600EC4D6011E8497017ED33EC3304600DE4E3
:10012600FCFFFEFD22E933E8330470F80202C61232
:10013600029158046009E4CC248150062850090233
:1001460002D02840030202CDC0E0EB4A7044B980D9
:1001560006D0E0FB0202BCEF4E701CBD8008EBFF30
:10016600EAFEE9FD80EBE98DF0A4FEE5F00201FF71
:10017600E9CDF9EAFEEBFFEF89F0A4FCE5F0CE89C4
:10018600F0A42EFFE435F0CD89F0A42DFEE435F081
:100196008067EF4E7005BD80D780C3EF8BF0A4ACAF
:1001A600F0EE8BF0A42CFCE435F0F8EF8AF0A42CEA
:1001B600E5F038FCE433CB8DF0A42CFCE5F03BF8FD
:1001C600EE8AF0A42CFCE5F038F8E433CF89F0A4ED
:1001D6002CFCE5F038CF3400CE89F0A42FFFE5F0F3
:1001E6003EFEE433C98DF0A42EFEE5F039CD8AF04B
:1001F600A42FFFE5F03EFEE43DFD33D0E0FB5007C3
:100206000BBB000F0202D0EC2CFCEF33FFEE33FEEB
:06021600ED33FD0202A819
:10021C0075F020800E75F010800575F0087D007E5D
:10022C00007F003392D530D5031203A9EC33401074
:10023C00EF33FFEE33FEED33FDEC33FCD5F0ED2266
:0E024C00E5F0247EA2D513CC92E7CDCEFF22A2
:10025A00EDD2E7CD33EC3392D524814006E4FFFE9C
:10026A00FDFC22FCE4CFCECDCC24E0501174FF80FB
:10027A00EDC3CC13CCCD13CDCE13CECF13CF047098
:07028A00F030D5DE0203A9EC
:10029100E9D2E7C933E833F892D5EDD2E7CD33ECB3
:0702A10033FC5002B2D5222C
:1002A800EC30E7100FBF000C0EBE00080DBD0004B7
:1002B8000BEB6014A2D5EB13FCED92E7FD2274FF63
:1002C800FCFDFEFF22E480F8A2D574FF13FC7D80BC
:0302D800E480EFD0
:0300000002086A89
:0C086A00787FE4F6D8FD75814B0208B1E0
:1002DB0075F008758200EF2FFFEE33FECD33CDCCDA
:1002EB0033CCC58233C5829BED9AEC99E58298405D
:1002FB000CF582EE9BFEED9AFDEC99FC0FD5F0D63A
:10030B00E4CEFBE4CDFAE4CCF9A88222B800C1B963
:10031B000059BA002DEC8BF084CFCECDFCE5F0CBA1
:10032B00F97818EF2FFFEE33FEED33FDEC33FCEBDA
:10033B0033FB10D703994004EB99FB0FD8E5E4F995
:10034B00FA227818EF2FFFEE33FEED33FDEC33FC82
:10035B00C933C910D7059BE99A4007EC9BFCE99A76
:10036B00F90FD8E0E4C9FAE4CCFB2275F010EF2FBB
:10037B00FFEE33FEED33FDCC33CCC833C810D707BB
:10038B009BEC9AE899400AED9BFDEC9AFCE899F8F6
:0E039B000FD5F0DAE4CDFBE4CCFAE4C8F92289
:0E03A900C3E49FFFE49EFEE49DFDE49CFC2265
:1003B700EB9FF5F0EA9E42F0E99D42F0E89C45F09C
:0103C7002213
:1003C800BB010DE58229F582E5833AF583020464D1
:1003D8005007E92582F8020458BBFE07E92582F890
:1003E800020470E58229F582E5833AF58302047CEC
:1003F800BB010DE58229F582E5833AF5830204C243
:100408005007E92582F802044CBBFE07E92582F86B
:040418000204CE22EA
:10041C00BB010DE58229F582E5833AF58302049947
:10042C005007E92582F802048CBBFE07E92582F807
:10043C000204A5E58229F582E5833AF5830204B22C
:0C044C00ECF608EDF608EEF608EFF622DC
:10087600020946E493A3F8E493A34003F68001F249
:1008860008DFF48029E493A3F85407240CC8C33383
:10089600C4540F4420C8834004F456800146F6DF52
:1008A600E4800B01020408102040809008F6E47EE4
:1008B600019360BCA3FF543F30E509541FFEE49347
:1008C600A360010ECF54C025E060A840B8E493A30E
:1008D600FAE493A3F8E493A3C8C582C8CAC583CA39
:1008E600F0A3C8C582C8CAC583CADFE9DEE780BEF1
:0109450000B1
:0C045800E6FC08E6FD08E6FE08E6FF22D0
:0C046400E0FCA3E0FDA3E0FEA3E0FF220B
:0C047000E2FC08E2FD08E2FE08E2FF22C8
:10047C00E493FC740193FD740293FE740393FF22C6
:0D048C00E6FB08E6F908E6FA08E6CBF822E0
:0C049900E0F8A3E0F9A3E0FAA3E0FB22E6
:0D04A500E2FB08E2F908E2FA08E2CBF822D7
:1004B200E493F8740193F9740293FA740393FB22A0
:0C04C200ECF0A3EDF0A3EEF0A3EFF022AD
:0C04CE00ECF208EDF208EEF208EFF2226A
:00000001FF
